{
  "_format": "hh-sol-artifact-1",
  "contractName": "MyEpicGame",
  "sourceName": "contracts/MyEpicGame.sol",
  "abi": [
    {
      "inputs": [
        {
          "internalType": "string[]",
          "name": "characterNames",
          "type": "string[]"
        },
        {
          "internalType": "string[]",
          "name": "characterImageURIs",
          "type": "string[]"
        },
        {
          "internalType": "uint256[]",
          "name": "characterHp",
          "type": "uint256[]"
        },
        {
          "internalType": "uint256[]",
          "name": "characterDefense",
          "type": "uint256[]"
        },
        {
          "internalType": "uint8[]",
          "name": "characterCriticalHitAt",
          "type": "uint8[]"
        },
        {
          "internalType": "uint256[]",
          "name": "characterAttackDmg",
          "type": "uint256[]"
        },
        {
          "internalType": "string",
          "name": "bossName",
          "type": "string"
        },
        {
          "internalType": "string",
          "name": "bossImageURI",
          "type": "string"
        },
        {
          "internalType": "uint256",
          "name": "bossHp",
          "type": "uint256"
        },
        {
          "internalType": "uint256",
          "name": "bossAttackDamage",
          "type": "uint256"
        }
      ],
      "stateMutability": "nonpayable",
      "type": "constructor"
    },
    {
      "anonymous": false,
      "inputs": [
        {
          "indexed": true,
          "internalType": "address",
          "name": "owner",
          "type": "address"
        },
        {
          "indexed": true,
          "internalType": "address",
          "name": "approved",
          "type": "address"
        },
        {
          "indexed": true,
          "internalType": "uint256",
          "name": "tokenId",
          "type": "uint256"
        }
      ],
      "name": "Approval",
      "type": "event"
    },
    {
      "anonymous": false,
      "inputs": [
        {
          "indexed": true,
          "internalType": "address",
          "name": "owner",
          "type": "address"
        },
        {
          "indexed": true,
          "internalType": "address",
          "name": "operator",
          "type": "address"
        },
        {
          "indexed": false,
          "internalType": "bool",
          "name": "approved",
          "type": "bool"
        }
      ],
      "name": "ApprovalForAll",
      "type": "event"
    },
    {
      "anonymous": false,
      "inputs": [
        {
          "indexed": false,
          "internalType": "uint256",
          "name": "newBossHp",
          "type": "uint256"
        },
        {
          "indexed": false,
          "internalType": "uint256",
          "name": "newPlayerHp",
          "type": "uint256"
        }
      ],
      "name": "AttackComplete",
      "type": "event"
    },
    {
      "anonymous": false,
      "inputs": [
        {
          "indexed": false,
          "internalType": "address",
          "name": "sender",
          "type": "address"
        },
        {
          "indexed": false,
          "internalType": "uint256",
          "name": "tokenId",
          "type": "uint256"
        },
        {
          "indexed": false,
          "internalType": "uint256",
          "name": "characterIndex",
          "type": "uint256"
        }
      ],
      "name": "CharacterNFTMinted",
      "type": "event"
    },
    {
      "anonymous": false,
      "inputs": [
        {
          "indexed": true,
          "internalType": "address",
          "name": "from",
          "type": "address"
        },
        {
          "indexed": true,
          "internalType": "address",
          "name": "to",
          "type": "address"
        },
        {
          "indexed": true,
          "internalType": "uint256",
          "name": "tokenId",
          "type": "uint256"
        }
      ],
      "name": "Transfer",
      "type": "event"
    },
    {
      "inputs": [
        {
          "internalType": "address",
          "name": "to",
          "type": "address"
        },
        {
          "internalType": "uint256",
          "name": "tokenId",
          "type": "uint256"
        }
      ],
      "name": "approve",
      "outputs": [],
      "stateMutability": "nonpayable",
      "type": "function"
    },
    {
      "inputs": [],
      "name": "attackBoss",
      "outputs": [],
      "stateMutability": "nonpayable",
      "type": "function"
    },
    {
      "inputs": [
        {
          "internalType": "address",
          "name": "owner",
          "type": "address"
        }
      ],
      "name": "balanceOf",
      "outputs": [
        {
          "internalType": "uint256",
          "name": "",
          "type": "uint256"
        }
      ],
      "stateMutability": "view",
      "type": "function"
    },
    {
      "inputs": [],
      "name": "bigBoss",
      "outputs": [
        {
          "internalType": "string",
          "name": "name",
          "type": "string"
        },
        {
          "internalType": "string",
          "name": "imageURI",
          "type": "string"
        },
        {
          "internalType": "uint256",
          "name": "hp",
          "type": "uint256"
        },
        {
          "internalType": "uint256",
          "name": "maxHp",
          "type": "uint256"
        },
        {
          "internalType": "uint256",
          "name": "attackDamage",
          "type": "uint256"
        }
      ],
      "stateMutability": "view",
      "type": "function"
    },
    {
      "inputs": [],
      "name": "checkIfUserHasNFT",
      "outputs": [
        {
          "components": [
            {
              "internalType": "uint256",
              "name": "characterIndex",
              "type": "uint256"
            },
            {
              "internalType": "string",
              "name": "name",
              "type": "string"
            },
            {
              "internalType": "string",
              "name": "imageURI",
              "type": "string"
            },
            {
              "internalType": "uint256",
              "name": "hp",
              "type": "uint256"
            },
            {
              "internalType": "uint256",
              "name": "maxHp",
              "type": "uint256"
            },
            {
              "internalType": "uint256",
              "name": "defense",
              "type": "uint256"
            },
            {
              "internalType": "uint8",
              "name": "criticalHitAt",
              "type": "uint8"
            },
            {
              "internalType": "uint8",
              "name": "criticalHitCounter",
              "type": "uint8"
            },
            {
              "internalType": "uint256",
              "name": "attackDamage",
              "type": "uint256"
            }
          ],
          "internalType": "struct MyEpicGame.CharacterAttributes",
          "name": "",
          "type": "tuple"
        }
      ],
      "stateMutability": "view",
      "type": "function"
    },
    {
      "inputs": [],
      "name": "getAllDefaultCharacters",
      "outputs": [
        {
          "components": [
            {
              "internalType": "uint256",
              "name": "characterIndex",
              "type": "uint256"
            },
            {
              "internalType": "string",
              "name": "name",
              "type": "string"
            },
            {
              "internalType": "string",
              "name": "imageURI",
              "type": "string"
            },
            {
              "internalType": "uint256",
              "name": "hp",
              "type": "uint256"
            },
            {
              "internalType": "uint256",
              "name": "maxHp",
              "type": "uint256"
            },
            {
              "internalType": "uint256",
              "name": "defense",
              "type": "uint256"
            },
            {
              "internalType": "uint8",
              "name": "criticalHitAt",
              "type": "uint8"
            },
            {
              "internalType": "uint8",
              "name": "criticalHitCounter",
              "type": "uint8"
            },
            {
              "internalType": "uint256",
              "name": "attackDamage",
              "type": "uint256"
            }
          ],
          "internalType": "struct MyEpicGame.CharacterAttributes[]",
          "name": "",
          "type": "tuple[]"
        }
      ],
      "stateMutability": "view",
      "type": "function"
    },
    {
      "inputs": [
        {
          "internalType": "uint256",
          "name": "tokenId",
          "type": "uint256"
        }
      ],
      "name": "getApproved",
      "outputs": [
        {
          "internalType": "address",
          "name": "",
          "type": "address"
        }
      ],
      "stateMutability": "view",
      "type": "function"
    },
    {
      "inputs": [],
      "name": "getBigBoss",
      "outputs": [
        {
          "components": [
            {
              "internalType": "string",
              "name": "name",
              "type": "string"
            },
            {
              "internalType": "string",
              "name": "imageURI",
              "type": "string"
            },
            {
              "internalType": "uint256",
              "name": "hp",
              "type": "uint256"
            },
            {
              "internalType": "uint256",
              "name": "maxHp",
              "type": "uint256"
            },
            {
              "internalType": "uint256",
              "name": "attackDamage",
              "type": "uint256"
            }
          ],
          "internalType": "struct MyEpicGame.BigBoss",
          "name": "",
          "type": "tuple"
        }
      ],
      "stateMutability": "view",
      "type": "function"
    },
    {
      "inputs": [
        {
          "internalType": "address",
          "name": "owner",
          "type": "address"
        },
        {
          "internalType": "address",
          "name": "operator",
          "type": "address"
        }
      ],
      "name": "isApprovedForAll",
      "outputs": [
        {
          "internalType": "bool",
          "name": "",
          "type": "bool"
        }
      ],
      "stateMutability": "view",
      "type": "function"
    },
    {
      "inputs": [
        {
          "internalType": "uint256",
          "name": "_characterIndex",
          "type": "uint256"
        }
      ],
      "name": "mintCharacterNFT",
      "outputs": [],
      "stateMutability": "nonpayable",
      "type": "function"
    },
    {
      "inputs": [],
      "name": "name",
      "outputs": [
        {
          "internalType": "string",
          "name": "",
          "type": "string"
        }
      ],
      "stateMutability": "view",
      "type": "function"
    },
    {
      "inputs": [
        {
          "internalType": "uint256",
          "name": "",
          "type": "uint256"
        }
      ],
      "name": "nftHolderAttributes",
      "outputs": [
        {
          "internalType": "uint256",
          "name": "characterIndex",
          "type": "uint256"
        },
        {
          "internalType": "string",
          "name": "name",
          "type": "string"
        },
        {
          "internalType": "string",
          "name": "imageURI",
          "type": "string"
        },
        {
          "internalType": "uint256",
          "name": "hp",
          "type": "uint256"
        },
        {
          "internalType": "uint256",
          "name": "maxHp",
          "type": "uint256"
        },
        {
          "internalType": "uint256",
          "name": "defense",
          "type": "uint256"
        },
        {
          "internalType": "uint8",
          "name": "criticalHitAt",
          "type": "uint8"
        },
        {
          "internalType": "uint8",
          "name": "criticalHitCounter",
          "type": "uint8"
        },
        {
          "internalType": "uint256",
          "name": "attackDamage",
          "type": "uint256"
        }
      ],
      "stateMutability": "view",
      "type": "function"
    },
    {
      "inputs": [
        {
          "internalType": "address",
          "name": "",
          "type": "address"
        }
      ],
      "name": "nftHolders",
      "outputs": [
        {
          "internalType": "uint256",
          "name": "",
          "type": "uint256"
        }
      ],
      "stateMutability": "view",
      "type": "function"
    },
    {
      "inputs": [
        {
          "internalType": "uint256",
          "name": "tokenId",
          "type": "uint256"
        }
      ],
      "name": "ownerOf",
      "outputs": [
        {
          "internalType": "address",
          "name": "",
          "type": "address"
        }
      ],
      "stateMutability": "view",
      "type": "function"
    },
    {
      "inputs": [
        {
          "internalType": "address",
          "name": "from",
          "type": "address"
        },
        {
          "internalType": "address",
          "name": "to",
          "type": "address"
        },
        {
          "internalType": "uint256",
          "name": "tokenId",
          "type": "uint256"
        }
      ],
      "name": "safeTransferFrom",
      "outputs": [],
      "stateMutability": "nonpayable",
      "type": "function"
    },
    {
      "inputs": [
        {
          "internalType": "address",
          "name": "from",
          "type": "address"
        },
        {
          "internalType": "address",
          "name": "to",
          "type": "address"
        },
        {
          "internalType": "uint256",
          "name": "tokenId",
          "type": "uint256"
        },
        {
          "internalType": "bytes",
          "name": "_data",
          "type": "bytes"
        }
      ],
      "name": "safeTransferFrom",
      "outputs": [],
      "stateMutability": "nonpayable",
      "type": "function"
    },
    {
      "inputs": [
        {
          "internalType": "address",
          "name": "operator",
          "type": "address"
        },
        {
          "internalType": "bool",
          "name": "approved",
          "type": "bool"
        }
      ],
      "name": "setApprovalForAll",
      "outputs": [],
      "stateMutability": "nonpayable",
      "type": "function"
    },
    {
      "inputs": [
        {
          "internalType": "bytes4",
          "name": "interfaceId",
          "type": "bytes4"
        }
      ],
      "name": "supportsInterface",
      "outputs": [
        {
          "internalType": "bool",
          "name": "",
          "type": "bool"
        }
      ],
      "stateMutability": "view",
      "type": "function"
    },
    {
      "inputs": [],
      "name": "symbol",
      "outputs": [
        {
          "internalType": "string",
          "name": "",
          "type": "string"
        }
      ],
      "stateMutability": "view",
      "type": "function"
    },
    {
      "inputs": [
        {
          "internalType": "uint256",
          "name": "_tokenId",
          "type": "uint256"
        }
      ],
      "name": "tokenURI",
      "outputs": [
        {
          "internalType": "string",
          "name": "",
          "type": "string"
        }
      ],
      "stateMutability": "view",
      "type": "function"
    },
    {
      "inputs": [
        {
          "internalType": "address",
          "name": "from",
          "type": "address"
        },
        {
          "internalType": "address",
          "name": "to",
          "type": "address"
        },
        {
          "internalType": "uint256",
          "name": "tokenId",
          "type": "uint256"
        }
      ],
      "name": "transferFrom",
      "outputs": [],
      "stateMutability": "nonpayable",
      "type": "function"
    }
  ],
  "bytecode": "0x60806040523480156200001157600080fd5b5060405162005fce38038062005fce833981810160405281019062000037919062000c6e565b6040518060400160405280600881526020017f4d6f6e73746572730000000000000000000000000000000000000000000000008152506040518060400160405280600481526020017f4d4e5354000000000000000000000000000000000000000000000000000000008152508160009080519060200190620000bb9291906200091d565b508060019080519060200190620000d49291906200091d565b5050506040518060a0016040528085815260200184815260200183815260200183815260200182815250600960008201518160000190805190602001906200011e9291906200091d565b5060208201518160010190805190602001906200013d9291906200091d565b50604082015181600201556060820151816003015560808201518160040155905050620002c06040518060600160405280602a815260200162005fa4602a9139600960000180546200018f906200108c565b80601f0160208091040260200160405190810160405280929190818152602001828054620001bd906200108c565b80156200020e5780601f10620001e2576101008083540402835291602001916200020e565b820191906000526020600020905b815481529060010190602001808311620001f057829003601f168201915b5050505050600960020154600960010180546200022b906200108c565b80601f016020809104026020016040519081016040528092919081815260200182805462000259906200108c565b8015620002aa5780601f106200027e57610100808354040283529160200191620002aa565b820191906000526020600020905b8154815290600101906020018083116200028c57829003601f168201915b50505050506200083260201b62001f821760201c565b60005b8a518110156200080a5760076040518061012001604052808381526020018d84815181106200031b577f4e487b7100000000000000000000000000000000000000000000000000000000600052603260045260246000fd5b602002602001015181526020018c848151811062000362577f4e487b7100000000000000000000000000000000000000000000000000000000600052603260045260246000fd5b602002602001015181526020018b8481518110620003a9577f4e487b7100000000000000000000000000000000000000000000000000000000600052603260045260246000fd5b602002602001015181526020018b8481518110620003f0577f4e487b7100000000000000000000000000000000000000000000000000000000600052603260045260246000fd5b602002602001015181526020018a848151811062000437577f4e487b7100000000000000000000000000000000000000000000000000000000600052603260045260246000fd5b602002602001015181526020018984815181106200047e577f4e487b7100000000000000000000000000000000000000000000000000000000600052603260045260246000fd5b602002602001015160ff168152602001600060ff168152602001888481518110620004d2577f4e487b7100000000000000000000000000000000000000000000000000000000600052603260045260246000fd5b602002602001015181525090806001815401808255809150506001900390600052602060002090600802016000909190919091506000820151816000015560208201518160010190805190602001906200052e9291906200091d565b5060408201518160020190805190602001906200054d9291906200091d565b50606082015181600301556080820151816004015560a0820151816005015560c08201518160060160006101000a81548160ff021916908360ff16021790555060e08201518160060160016101000a81548160ff021916908360ff16021790555061010082015181600701555050600060078281548110620005f8577f4e487b7100000000000000000000000000000000000000000000000000000000600052603260045260246000fd5b906000526020600020906008020160405180610120016040529081600082015481526020016001820180546200062e906200108c565b80601f01602080910402602001604051908101604052809291908181526020018280546200065c906200108c565b8015620006ad5780601f106200068157610100808354040283529160200191620006ad565b820191906000526020600020905b8154815290600101906020018083116200068f57829003601f168201915b50505050508152602001600282018054620006c8906200108c565b80601f0160208091040260200160405190810160405280929190818152602001828054620006f6906200108c565b8015620007475780601f106200071b5761010080835404028352916020019162000747565b820191906000526020600020905b8154815290600101906020018083116200072957829003601f168201915b505050505081526020016003820154815260200160048201548152602001600582015481526020016006820160009054906101000a900460ff1660ff1660ff1681526020016006820160019054906101000a900460ff1660ff1660ff1681526020016007820154815250509050620007f260405180606001604052806025815260200162005f7f602591398260200151836060015184604001516200083260201b62001f821760201c565b5060018162000802919062000fe2565b9050620002c3565b50620008226006620008de60201b620020241760201c565b50505050505050505050620011ca565b620008d8848484846040516024016200084f949392919062000e78565b6040516020818303038152906040527f8d142cdd000000000000000000000000000000000000000000000000000000007bffffffffffffffffffffffffffffffffffffffffffffffffffffffff19166020820180517bffffffffffffffffffffffffffffffffffffffffffffffffffffffff8381831617835250505050620008f460201b60201c565b50505050565b6001816000016000828254019250508190555050565b60008151905060006a636f6e736f6c652e6c6f679050602083016000808483855afa5050505050565b8280546200092b906200108c565b90600052602060002090601f0160209004810192826200094f57600085556200099b565b82601f106200096a57805160ff19168380011785556200099b565b828001600101855582156200099b579182015b828111156200099a5782518255916020019190600101906200097d565b5b509050620009aa9190620009ae565b5090565b5b80821115620009c9576000816000905550600101620009af565b5090565b6000620009e4620009de8462000f03565b62000eda565b9050808382526020820190508285602086028201111562000a0457600080fd5b60005b8581101562000a5357815167ffffffffffffffff81111562000a2857600080fd5b80860162000a37898262000c13565b8552602085019450602084019350505060018101905062000a07565b5050509392505050565b600062000a7462000a6e8462000f32565b62000eda565b9050808382526020820190508285602086028201111562000a9457600080fd5b60005b8581101562000ac8578162000aad888262000c40565b84526020840193506020830192505060018101905062000a97565b5050509392505050565b600062000ae962000ae38462000f61565b62000eda565b9050808382526020820190508285602086028201111562000b0957600080fd5b60005b8581101562000b3d578162000b22888262000c57565b84526020840193506020830192505060018101905062000b0c565b5050509392505050565b600062000b5e62000b588462000f90565b62000eda565b90508281526020810184848401111562000b7757600080fd5b62000b8484828562001056565b509392505050565b600082601f83011262000b9e57600080fd5b815162000bb0848260208601620009cd565b91505092915050565b600082601f83011262000bcb57600080fd5b815162000bdd84826020860162000a5d565b91505092915050565b600082601f83011262000bf857600080fd5b815162000c0a84826020860162000ad2565b91505092915050565b600082601f83011262000c2557600080fd5b815162000c3784826020860162000b47565b91505092915050565b60008151905062000c518162001196565b92915050565b60008151905062000c6881620011b0565b92915050565b6000806000806000806000806000806101408b8d03121562000c8f57600080fd5b60008b015167ffffffffffffffff81111562000caa57600080fd5b62000cb88d828e0162000b8c565b9a505060208b015167ffffffffffffffff81111562000cd657600080fd5b62000ce48d828e0162000b8c565b99505060408b015167ffffffffffffffff81111562000d0257600080fd5b62000d108d828e0162000bb9565b98505060608b015167ffffffffffffffff81111562000d2e57600080fd5b62000d3c8d828e0162000bb9565b97505060808b015167ffffffffffffffff81111562000d5a57600080fd5b62000d688d828e0162000be6565b96505060a08b015167ffffffffffffffff81111562000d8657600080fd5b62000d948d828e0162000bb9565b95505060c08b015167ffffffffffffffff81111562000db257600080fd5b62000dc08d828e0162000c13565b94505060e08b015167ffffffffffffffff81111562000dde57600080fd5b62000dec8d828e0162000c13565b93505061010062000e008d828e0162000c40565b92505061012062000e148d828e0162000c40565b9150509295989b9194979a5092959850565b600062000e338262000fc6565b62000e3f818562000fd1565b935062000e5181856020860162001056565b62000e5c8162001185565b840191505092915050565b62000e72816200103f565b82525050565b6000608082019050818103600083015262000e94818762000e26565b9050818103602083015262000eaa818662000e26565b905062000ebb604083018562000e67565b818103606083015262000ecf818462000e26565b905095945050505050565b600062000ee662000ef9565b905062000ef48282620010c2565b919050565b6000604051905090565b600067ffffffffffffffff82111562000f215762000f2062001156565b5b602082029050602081019050919050565b600067ffffffffffffffff82111562000f505762000f4f62001156565b5b602082029050602081019050919050565b600067ffffffffffffffff82111562000f7f5762000f7e62001156565b5b602082029050602081019050919050565b600067ffffffffffffffff82111562000fae5762000fad62001156565b5b62000fb98262001185565b9050602081019050919050565b600081519050919050565b600082825260208201905092915050565b600062000fef826200103f565b915062000ffc836200103f565b9250827fffffffffffffffffffffffffffffffffffffffffffffffffffffffffffffffff03821115620010345762001033620010f8565b5b828201905092915050565b6000819050919050565b600060ff82169050919050565b60005b838110156200107657808201518184015260208101905062001059565b8381111562001086576000848401525b50505050565b60006002820490506001821680620010a557607f821691505b60208210811415620010bc57620010bb62001127565b5b50919050565b620010cd8262001185565b810181811067ffffffffffffffff82111715620010ef57620010ee62001156565b5b80604052505050565b7f4e487b7100000000000000000000000000000000000000000000000000000000600052601160045260246000fd5b7f4e487b7100000000000000000000000000000000000000000000000000000000600052602260045260246000fd5b7f4e487b7100000000000000000000000000000000000000000000000000000000600052604160045260246000fd5b6000601f19601f8301169050919050565b620011a1816200103f565b8114620011ad57600080fd5b50565b620011bb8162001049565b8114620011c757600080fd5b50565b614da580620011da6000396000f3fe608060405234801561001057600080fd5b50600436106101375760003560e01c806395d89b41116100b8578063b953084e1161007c578063b953084e1461036c578063c87b56dd1461038a578063c8cf27f4146103ba578063d4f24c5b146103d8578063e985e9c5146103e2578063f8b81ef71461041257610137565b806395d89b41146102bc57806398da4c95146102da578063a22cb46514610312578063a9c326791461032e578063b88d4fde1461035057610137565b806323b872dd116100ff57806323b872dd146101f457806342842e0e146102105780636352211e1461022c57806370a082311461025c5780637df124a11461028c57610137565b806301ffc9a71461013c5780630665f9611461016c57806306fdde031461018a578063081812fc146101a8578063095ea7b3146101d8575b600080fd5b61015660048036038101906101519190613278565b61042e565b6040516101639190613c24565b60405180910390f35b610174610510565b6040516101819190613fbd565b60405180910390f35b61019261066c565b60405161019f9190613c3f565b60405180910390f35b6101c260048036038101906101bd91906132ca565b6106fe565b6040516101cf9190613b64565b60405180910390f35b6101f260048036038101906101ed919061323c565b610783565b005b61020e60048036038101906102099190613136565b61089b565b005b61022a60048036038101906102259190613136565b6108fb565b005b610246600480360381019061024191906132ca565b61091b565b6040516102539190613b64565b60405180910390f35b610276600480360381019061027191906130d1565b6109cd565b6040516102839190614001565b60405180910390f35b6102a660048036038101906102a191906130d1565b610a85565b6040516102b39190614001565b60405180910390f35b6102c4610a9d565b6040516102d19190613c3f565b60405180910390f35b6102f460048036038101906102ef91906132ca565b610b2f565b6040516103099998979695949392919061401c565b60405180910390f35b61032c60048036038101906103279190613200565b610ca7565b005b610336610e28565b604051610347959493929190613d0e565b60405180910390f35b61036a60048036038101906103659190613185565b610f5c565b005b610374610fbe565b6040516103819190613c02565b60405180910390f35b6103a4600480360381019061039f91906132ca565b6111ae565b6040516103b19190613c3f565b60405180910390f35b6103c2611451565b6040516103cf9190613fdf565b60405180910390f35b6103e061166e565b005b6103fc60048036038101906103f791906130fa565b6119f0565b6040516104099190613c24565b60405180910390f35b61042c600480360381019061042791906132ca565b611a84565b005b60007f80ac58cd000000000000000000000000000000000000000000000000000000007bffffffffffffffffffffffffffffffffffffffffffffffffffffffff1916827bffffffffffffffffffffffffffffffffffffffffffffffffffffffff191614806104f957507f5b5e139f000000000000000000000000000000000000000000000000000000007bffffffffffffffffffffffffffffffffffffffffffffffffffffffff1916827bffffffffffffffffffffffffffffffffffffffffffffffffffffffff1916145b8061050957506105088261203a565b5b9050919050565b610518612edc565b60096040518060a00160405290816000820180546105359061439b565b80601f01602080910402602001604051908101604052809291908181526020018280546105619061439b565b80156105ae5780601f10610583576101008083540402835291602001916105ae565b820191906000526020600020905b81548152906001019060200180831161059157829003601f168201915b505050505081526020016001820180546105c79061439b565b80601f01602080910402602001604051908101604052809291908181526020018280546105f39061439b565b80156106405780601f1061061557610100808354040283529160200191610640565b820191906000526020600020905b81548152906001019060200180831161062357829003601f168201915b505050505081526020016002820154815260200160038201548152602001600482015481525050905090565b60606000805461067b9061439b565b80601f01602080910402602001604051908101604052809291908181526020018280546106a79061439b565b80156106f45780601f106106c9576101008083540402835291602001916106f4565b820191906000526020600020905b8154815290600101906020018083116106d757829003601f168201915b5050505050905090565b6000610709826120a4565b610748576040517f08c379a000000000000000000000000000000000000000000000000000000000815260040161073f90613f3d565b60405180910390fd5b6004600083815260200190815260200160002060009054906101000a900473ffffffffffffffffffffffffffffffffffffffff169050919050565b600061078e8261091b565b90508073ffffffffffffffffffffffffffffffffffffffff168373ffffffffffffffffffffffffffffffffffffffff1614156107ff576040517f08c379a00000000000000000000000000000000000000000000000000000000081526004016107f690613f7d565b60405180910390fd5b8073ffffffffffffffffffffffffffffffffffffffff1661081e612110565b73ffffffffffffffffffffffffffffffffffffffff16148061084d575061084c81610847612110565b6119f0565b5b61088c576040517f08c379a000000000000000000000000000000000000000000000000000000000815260040161088390613e9d565b60405180910390fd5b6108968383612118565b505050565b6108ac6108a6612110565b826121d1565b6108eb576040517f08c379a00000000000000000000000000000000000000000000000000000000081526004016108e290613f9d565b60405180910390fd5b6108f68383836122af565b505050565b61091683838360405180602001604052806000815250610f5c565b505050565b6000806002600084815260200190815260200160002060009054906101000a900473ffffffffffffffffffffffffffffffffffffffff169050600073ffffffffffffffffffffffffffffffffffffffff168173ffffffffffffffffffffffffffffffffffffffff1614156109c4576040517f08c379a00000000000000000000000000000000000000000000000000000000081526004016109bb90613edd565b60405180910390fd5b80915050919050565b60008073ffffffffffffffffffffffffffffffffffffffff168273ffffffffffffffffffffffffffffffffffffffff161415610a3e576040517f08c379a0000000000000000000000000000000000000000000000000000000008152600401610a3590613ebd565b60405180910390fd5b600360008373ffffffffffffffffffffffffffffffffffffffff1673ffffffffffffffffffffffffffffffffffffffff168152602001908152602001600020549050919050565b600e6020528060005260406000206000915090505481565b606060018054610aac9061439b565b80601f0160208091040260200160405190810160405280929190818152602001828054610ad89061439b565b8015610b255780601f10610afa57610100808354040283529160200191610b25565b820191906000526020600020905b815481529060010190602001808311610b0857829003601f168201915b5050505050905090565b6008602052806000526040600020600091509050806000015490806001018054610b589061439b565b80601f0160208091040260200160405190810160405280929190818152602001828054610b849061439b565b8015610bd15780601f10610ba657610100808354040283529160200191610bd1565b820191906000526020600020905b815481529060010190602001808311610bb457829003601f168201915b505050505090806002018054610be69061439b565b80601f0160208091040260200160405190810160405280929190818152602001828054610c129061439b565b8015610c5f5780601f10610c3457610100808354040283529160200191610c5f565b820191906000526020600020905b815481529060010190602001808311610c4257829003601f168201915b5050505050908060030154908060040154908060050154908060060160009054906101000a900460ff16908060060160019054906101000a900460ff16908060070154905089565b610caf612110565b73ffffffffffffffffffffffffffffffffffffffff168273ffffffffffffffffffffffffffffffffffffffff161415610d1d576040517f08c379a0000000000000000000000000000000000000000000000000000000008152600401610d1490613e5d565b60405180910390fd5b8060056000610d2a612110565b73ffffffffffffffffffffffffffffffffffffffff1673ffffffffffffffffffffffffffffffffffffffff16815260200190815260200160002060008473ffffffffffffffffffffffffffffffffffffffff1673ffffffffffffffffffffffffffffffffffffffff16815260200190815260200160002060006101000a81548160ff0219169083151502179055508173ffffffffffffffffffffffffffffffffffffffff16610dd7612110565b73ffffffffffffffffffffffffffffffffffffffff167f17307eab39ab6107e8899845ad3d59bd9653f200f220920489ca2b5937696c3183604051610e1c9190613c24565b60405180910390a35050565b6009806000018054610e399061439b565b80601f0160208091040260200160405190810160405280929190818152602001828054610e659061439b565b8015610eb25780601f10610e8757610100808354040283529160200191610eb2565b820191906000526020600020905b815481529060010190602001808311610e9557829003601f168201915b505050505090806001018054610ec79061439b565b80601f0160208091040260200160405190810160405280929190818152602001828054610ef39061439b565b8015610f405780601f10610f1557610100808354040283529160200191610f40565b820191906000526020600020905b815481529060010190602001808311610f2357829003601f168201915b5050505050908060020154908060030154908060040154905085565b610f6d610f67612110565b836121d1565b610fac576040517f08c379a0000000000000000000000000000000000000000000000000000000008152600401610fa390613f9d565b60405180910390fd5b610fb88484848461250b565b50505050565b60606007805480602002602001604051908101604052809291908181526020016000905b828210156111a5578382906000526020600020906008020160405180610120016040529081600082015481526020016001820180546110209061439b565b80601f016020809104026020016040519081016040528092919081815260200182805461104c9061439b565b80156110995780601f1061106e57610100808354040283529160200191611099565b820191906000526020600020905b81548152906001019060200180831161107c57829003601f168201915b505050505081526020016002820180546110b29061439b565b80601f01602080910402602001604051908101604052809291908181526020018280546110de9061439b565b801561112b5780601f106111005761010080835404028352916020019161112b565b820191906000526020600020905b81548152906001019060200180831161110e57829003601f168201915b505050505081526020016003820154815260200160048201548152602001600582015481526020016006820160009054906101000a900460ff1660ff1660ff1681526020016006820160019054906101000a900460ff1660ff1660ff16815260200160078201548152505081526020019060010190610fe2565b50505050905090565b606060006008600084815260200190815260200160002060405180610120016040529081600082015481526020016001820180546111eb9061439b565b80601f01602080910402602001604051908101604052809291908181526020018280546112179061439b565b80156112645780601f1061123957610100808354040283529160200191611264565b820191906000526020600020905b81548152906001019060200180831161124757829003601f168201915b5050505050815260200160028201805461127d9061439b565b80601f01602080910402602001604051908101604052809291908181526020018280546112a99061439b565b80156112f65780601f106112cb576101008083540402835291602001916112f6565b820191906000526020600020905b8154815290600101906020018083116112d957829003601f168201915b505050505081526020016003820154815260200160048201548152602001600582015481526020016006820160009054906101000a900460ff1660ff1660ff1681526020016006820160019054906101000a900460ff1660ff1660ff168152602001600782015481525050905060006113728260600151612567565b905060006113838360800151612567565b90506000611395846101000151612567565b905060006113a68560a00151612567565b905060006113ba8660c0015160ff16612567565b905060006113ce8760e0015160ff16612567565b9050600061141a88602001516113e38c612567565b8a604001518a8a8a8a898b60405160200161140699989796959493929190613a55565b604051602081830303815290604052612714565b905060008160405160200161142f9190613b42565b6040516020818303038152906040529050809950505050505050505050919050565b611459612f0b565b6000600e60003373ffffffffffffffffffffffffffffffffffffffff1673ffffffffffffffffffffffffffffffffffffffff168152602001908152602001600020549050600081111561165d576008600082815260200190815260200160002060405180610120016040529081600082015481526020016001820180546114df9061439b565b80601f016020809104026020016040519081016040528092919081815260200182805461150b9061439b565b80156115585780601f1061152d57610100808354040283529160200191611558565b820191906000526020600020905b81548152906001019060200180831161153b57829003601f168201915b505050505081526020016002820180546115719061439b565b80601f016020809104026020016040519081016040528092919081815260200182805461159d9061439b565b80156115ea5780601f106115bf576101008083540402835291602001916115ea565b820191906000526020600020905b8154815290600101906020018083116115cd57829003601f168201915b505050505081526020016003820154815260200160048201548152602001600582015481526020016006820160009054906101000a900460ff1660ff1660ff1681526020016006820160019054906101000a900460ff1660ff1660ff16815260200160078201548152505091505061166b565b611665612f0b565b80925050505b90565b6000600e60003373ffffffffffffffffffffffffffffffffffffffff1673ffffffffffffffffffffffffffffffffffffffff16815260200190815260200160002054905060006008600083815260200190815260200160002090506117816040518060600160405280603c8152602001614d34603c91398260010180546116f49061439b565b80601f01602080910402602001604051908101604052809291908181526020018280546117209061439b565b801561176d5780601f106117425761010080835404028352916020019161176d565b820191906000526020600020905b81548152906001019060200180831161175057829003601f168201915b5050505050836003015484600701546128d2565b6118596040518060400160405280601b81526020017f426f73732025732068617320257320485020616e642025732041440000000000815250600960000180546117ca9061439b565b80601f01602080910402602001604051908101604052809291908181526020018280546117f69061439b565b80156118435780601f1061181857610100808354040283529160200191611843565b820191906000526020600020905b81548152906001019060200180831161182657829003601f168201915b50505050506009600201546009600401546128d2565b60008160030154116118a0576040517f08c379a000000000000000000000000000000000000000000000000000000000815260040161189790613efd565b60405180910390fd5b6000600960020154116118e8576040517f08c379a00000000000000000000000000000000000000000000000000000000081526004016118df90613dfd565b60405180910390fd5b80600701546009600201541015611909576000600960020181905550611928565b806007015460096002015461191e91906142a4565b6009600201819055505b6009600401548160050154826003015461194291906141c3565b10156119575760008160030181905550611984565b8060050154600960040154826003015461197191906142a4565b61197b91906141c3565b81600301819055505b6119aa604051806060016040528060288152602001614cde602891398260030154612974565b7f838ab28464562786a6c4ab2311964b82fa60bd9b14aa7e856af1f3f18d41a41460096002015482600301546040516119e49291906140b7565b60405180910390a15050565b6000600560008473ffffffffffffffffffffffffffffffffffffffff1673ffffffffffffffffffffffffffffffffffffffff16815260200190815260200160002060008373ffffffffffffffffffffffffffffffffffffffff1673ffffffffffffffffffffffffffffffffffffffff16815260200190815260200160002060009054906101000a900460ff16905092915050565b6000611a906006612a10565b9050611a9c3382612a1e565b60405180610120016040528083815260200160078481548110611ae8577f4e487b7100000000000000000000000000000000000000000000000000000000600052603260045260246000fd5b90600052602060002090600802016001018054611b049061439b565b80601f0160208091040260200160405190810160405280929190818152602001828054611b309061439b565b8015611b7d5780601f10611b5257610100808354040283529160200191611b7d565b820191906000526020600020905b815481529060010190602001808311611b6057829003601f168201915b5050505050815260200160078481548110611bc1577f4e487b7100000000000000000000000000000000000000000000000000000000600052603260045260246000fd5b90600052602060002090600802016002018054611bdd9061439b565b80601f0160208091040260200160405190810160405280929190818152602001828054611c099061439b565b8015611c565780601f10611c2b57610100808354040283529160200191611c56565b820191906000526020600020905b815481529060010190602001808311611c3957829003601f168201915b5050505050815260200160078481548110611c9a577f4e487b7100000000000000000000000000000000000000000000000000000000600052603260045260246000fd5b906000526020600020906008020160030154815260200160078481548110611ceb577f4e487b7100000000000000000000000000000000000000000000000000000000600052603260045260246000fd5b906000526020600020906008020160030154815260200160078481548110611d3c577f4e487b7100000000000000000000000000000000000000000000000000000000600052603260045260246000fd5b906000526020600020906008020160050154815260200160078481548110611d8d577f4e487b7100000000000000000000000000000000000000000000000000000000600052603260045260246000fd5b906000526020600020906008020160060160009054906101000a900460ff1660ff168152602001600060ff16815260200160078481548110611df8577f4e487b7100000000000000000000000000000000000000000000000000000000600052603260045260246000fd5b90600052602060002090600802016007015481525060086000838152602001908152602001600020600082015181600001556020820151816001019080519060200190611e46929190612f5d565b506040820151816002019080519060200190611e63929190612f5d565b50606082015181600301556080820151816004015560a0820151816005015560c08201518160060160006101000a81548160ff021916908360ff16021790555060e08201518160060160016101000a81548160ff021916908360ff1602179055506101008201518160070155905050611ef56040518060600160405280602e8152602001614d06602e91398284612a3c565b80600e60003373ffffffffffffffffffffffffffffffffffffffff1673ffffffffffffffffffffffffffffffffffffffff16815260200190815260200160002081905550611f436006612024565b7f4bc303fd457a97b4691b9af582ce71868a3d258638c8d4f8c60988a0f0bfb8cd338284604051611f7693929190613bcb565b60405180910390a15050565b61201e84848484604051602401611f9c9493929190613c61565b6040516020818303038152906040527f8d142cdd000000000000000000000000000000000000000000000000000000007bffffffffffffffffffffffffffffffffffffffffffffffffffffffff19166020820180517bffffffffffffffffffffffffffffffffffffffffffffffffffffffff8381831617835250505050612adb565b50505050565b6001816000016000828254019250508190555050565b60007f01ffc9a7000000000000000000000000000000000000000000000000000000007bffffffffffffffffffffffffffffffffffffffffffffffffffffffff1916827bffffffffffffffffffffffffffffffffffffffffffffffffffffffff1916149050919050565b60008073ffffffffffffffffffffffffffffffffffffffff166002600084815260200190815260200160002060009054906101000a900473ffffffffffffffffffffffffffffffffffffffff1673ffffffffffffffffffffffffffffffffffffffff1614159050919050565b600033905090565b816004600083815260200190815260200160002060006101000a81548173ffffffffffffffffffffffffffffffffffffffff021916908373ffffffffffffffffffffffffffffffffffffffff160217905550808273ffffffffffffffffffffffffffffffffffffffff1661218b8361091b565b73ffffffffffffffffffffffffffffffffffffffff167f8c5be1e5ebec7d5bd14f71427d1e84f3dd0314c0f7b2291e5b200ac8c7c3b92560405160405180910390a45050565b60006121dc826120a4565b61221b576040517f08c379a000000000000000000000000000000000000000000000000000000000815260040161221290613e7d565b60405180910390fd5b60006122268361091b565b90508073ffffffffffffffffffffffffffffffffffffffff168473ffffffffffffffffffffffffffffffffffffffff16148061229557508373ffffffffffffffffffffffffffffffffffffffff1661227d846106fe565b73ffffffffffffffffffffffffffffffffffffffff16145b806122a657506122a581856119f0565b5b91505092915050565b8273ffffffffffffffffffffffffffffffffffffffff166122cf8261091b565b73ffffffffffffffffffffffffffffffffffffffff1614612325576040517f08c379a000000000000000000000000000000000000000000000000000000000815260040161231c90613f5d565b60405180910390fd5b600073ffffffffffffffffffffffffffffffffffffffff168273ffffffffffffffffffffffffffffffffffffffff161415612395576040517f08c379a000000000000000000000000000000000000000000000000000000000815260040161238c90613e3d565b60405180910390fd5b6123a0838383612b04565b6123ab600082612118565b6001600360008573ffffffffffffffffffffffffffffffffffffffff1673ffffffffffffffffffffffffffffffffffffffff16815260200190815260200160002060008282546123fb91906142a4565b925050819055506001600360008473ffffffffffffffffffffffffffffffffffffffff1673ffffffffffffffffffffffffffffffffffffffff168152602001908152602001600020600082825461245291906141c3565b92505081905550816002600083815260200190815260200160002060006101000a81548173ffffffffffffffffffffffffffffffffffffffff021916908373ffffffffffffffffffffffffffffffffffffffff160217905550808273ffffffffffffffffffffffffffffffffffffffff168473ffffffffffffffffffffffffffffffffffffffff167fddf252ad1be2c89b69c2b068fc378daa952ba7f163c4a11628f55a4df523b3ef60405160405180910390a4505050565b6125168484846122af565b61252284848484612b09565b612561576040517f08c379a000000000000000000000000000000000000000000000000000000000815260040161255890613ddd565b60405180910390fd5b50505050565b606060008214156125af576040518060400160405280600181526020017f3000000000000000000000000000000000000000000000000000000000000000815250905061270f565b600082905060005b600082146125e15780806125ca906143fe565b915050600a826125da9190614219565b91506125b7565b60008167ffffffffffffffff811115612623577f4e487b7100000000000000000000000000000000000000000000000000000000600052604160045260246000fd5b6040519080825280601f01601f1916602001820160405280156126555781602001600182028036833780820191505090505b5090505b600085146127085760018261266e91906142a4565b9150600a8561267d9190614447565b603061268991906141c3565b60f81b8183815181106126c5577f4e487b7100000000000000000000000000000000000000000000000000000000600052603260045260246000fd5b60200101907effffffffffffffffffffffffffffffffffffffffffffffffffffffffffffff1916908160001a905350600a856127019190614219565b9450612659565b8093505050505b919050565b6060600082519050600081141561273d57604051806020016040528060008152509150506128cd565b6000600360028361274e91906141c3565b6127589190614219565b6004612764919061424a565b9050600060208261277591906141c3565b67ffffffffffffffff8111156127b4577f4e487b7100000000000000000000000000000000000000000000000000000000600052604160045260246000fd5b6040519080825280601f01601f1916602001820160405280156127e65781602001600182028036833780820191505090505b5090506000604051806060016040528060408152602001614c9e604091399050600181016020830160005b8681101561288a5760038101905062ffffff818a015116603f8160121c168401518060081b905060ff603f83600c1c1686015116810190508060081b905060ff603f8360061c1686015116810190508060081b905060ff603f831686015116810190508060e01b90508084526004840193505050612811565b5060038606600181146128a457600281146128b4576128bf565b613d3d60f01b60028303526128bf565b603d60f81b60018303525b508484525050819450505050505b919050565b61296e848484846040516024016128ec9493929190613cbb565b6040516020818303038152906040527fd5cf17d0000000000000000000000000000000000000000000000000000000007bffffffffffffffffffffffffffffffffffffffffffffffffffffffff19166020820180517bffffffffffffffffffffffffffffffffffffffffffffffffffffffff8381831617835250505050612adb565b50505050565b612a0c828260405160240161298a929190613d6f565b6040516020818303038152906040527f9710a9d0000000000000000000000000000000000000000000000000000000007bffffffffffffffffffffffffffffffffffffffffffffffffffffffff19166020820180517bffffffffffffffffffffffffffffffffffffffffffffffffffffffff8381831617835250505050612adb565b5050565b600081600001549050919050565b612a38828260405180602001604052806000815250612ca0565b5050565b612ad6838383604051602401612a5493929190613d9f565b6040516020818303038152906040527f969cdd03000000000000000000000000000000000000000000000000000000007bffffffffffffffffffffffffffffffffffffffffffffffffffffffff19166020820180517bffffffffffffffffffffffffffffffffffffffffffffffffffffffff8381831617835250505050612adb565b505050565b60008151905060006a636f6e736f6c652e6c6f679050602083016000808483855afa5050505050565b505050565b6000612b2a8473ffffffffffffffffffffffffffffffffffffffff16612cfb565b15612c93578373ffffffffffffffffffffffffffffffffffffffff1663150b7a02612b53612110565b8786866040518563ffffffff1660e01b8152600401612b759493929190613b7f565b602060405180830381600087803b158015612b8f57600080fd5b505af1925050508015612bc057506040513d601f19601f82011682018060405250810190612bbd91906132a1565b60015b612c43573d8060008114612bf0576040519150601f19603f3d011682016040523d82523d6000602084013e612bf5565b606091505b50600081511415612c3b576040517f08c379a0000000000000000000000000000000000000000000000000000000008152600401612c3290613ddd565b60405180910390fd5b805181602001fd5b63150b7a0260e01b7bffffffffffffffffffffffffffffffffffffffffffffffffffffffff1916817bffffffffffffffffffffffffffffffffffffffffffffffffffffffff191614915050612c98565b600190505b949350505050565b612caa8383612d0e565b612cb76000848484612b09565b612cf6576040517f08c379a0000000000000000000000000000000000000000000000000000000008152600401612ced90613ddd565b60405180910390fd5b505050565b600080823b905060008111915050919050565b600073ffffffffffffffffffffffffffffffffffffffff168273ffffffffffffffffffffffffffffffffffffffff161415612d7e576040517f08c379a0000000000000000000000000000000000000000000000000000000008152600401612d7590613f1d565b60405180910390fd5b612d87816120a4565b15612dc7576040517f08c379a0000000000000000000000000000000000000000000000000000000008152600401612dbe90613e1d565b60405180910390fd5b612dd360008383612b04565b6001600360008473ffffffffffffffffffffffffffffffffffffffff1673ffffffffffffffffffffffffffffffffffffffff1681526020019081526020016000206000828254612e2391906141c3565b92505081905550816002600083815260200190815260200160002060006101000a81548173ffffffffffffffffffffffffffffffffffffffff021916908373ffffffffffffffffffffffffffffffffffffffff160217905550808273ffffffffffffffffffffffffffffffffffffffff16600073ffffffffffffffffffffffffffffffffffffffff167fddf252ad1be2c89b69c2b068fc378daa952ba7f163c4a11628f55a4df523b3ef60405160405180910390a45050565b6040518060a0016040528060608152602001606081526020016000815260200160008152602001600081525090565b604051806101200160405280600081526020016060815260200160608152602001600081526020016000815260200160008152602001600060ff168152602001600060ff168152602001600081525090565b828054612f699061439b565b90600052602060002090601f016020900481019282612f8b5760008555612fd2565b82601f10612fa457805160ff1916838001178555612fd2565b82800160010185558215612fd2579182015b82811115612fd1578251825591602001919060010190612fb6565b5b509050612fdf9190612fe3565b5090565b5b80821115612ffc576000816000905550600101612fe4565b5090565b600061301361300e84614105565b6140e0565b90508281526020810184848401111561302b57600080fd5b613036848285614359565b509392505050565b60008135905061304d81614c41565b92915050565b60008135905061306281614c58565b92915050565b60008135905061307781614c6f565b92915050565b60008151905061308c81614c6f565b92915050565b600082601f8301126130a357600080fd5b81356130b3848260208601613000565b91505092915050565b6000813590506130cb81614c86565b92915050565b6000602082840312156130e357600080fd5b60006130f18482850161303e565b91505092915050565b6000806040838503121561310d57600080fd5b600061311b8582860161303e565b925050602061312c8582860161303e565b9150509250929050565b60008060006060848603121561314b57600080fd5b60006131598682870161303e565b935050602061316a8682870161303e565b925050604061317b868287016130bc565b9150509250925092565b6000806000806080858703121561319b57600080fd5b60006131a98782880161303e565b94505060206131ba8782880161303e565b93505060406131cb878288016130bc565b925050606085013567ffffffffffffffff8111156131e857600080fd5b6131f487828801613092565b91505092959194509250565b6000806040838503121561321357600080fd5b60006132218582860161303e565b925050602061323285828601613053565b9150509250929050565b6000806040838503121561324f57600080fd5b600061325d8582860161303e565b925050602061326e858286016130bc565b9150509250929050565b60006020828403121561328a57600080fd5b600061329884828501613068565b91505092915050565b6000602082840312156132b357600080fd5b60006132c18482850161307d565b91505092915050565b6000602082840312156132dc57600080fd5b60006132ea848285016130bc565b91505092915050565b60006132ff8383613881565b905092915050565b613310816142d8565b82525050565b600061332182614146565b61332b8185614174565b93508360208202850161333d85614136565b8060005b85811015613379578484038952815161335a85826132f3565b945061336583614167565b925060208a01995050600181019050613341565b50829750879550505050505092915050565b613394816142ea565b82525050565b60006133a582614151565b6133af8185614185565b93506133bf818560208601614368565b6133c881614534565b840191505092915050565b60006133de8261415c565b6133e88185614196565b93506133f8818560208601614368565b61340181614534565b840191505092915050565b60006134178261415c565b61342181856141a7565b9350613431818560208601614368565b61343a81614534565b840191505092915050565b60006134508261415c565b61345a81856141b8565b935061346a818560208601614368565b80840191505092915050565b6000613483600b836141b8565b915061348e82614545565b600b82019050919050565b60006134a66032836141a7565b91506134b18261456e565b604082019050919050565b60006134c96028836141a7565b91506134d4826145bd565b604082019050919050565b60006134ec601c836141a7565b91506134f78261460c565b602082019050919050565b600061350f602e836141b8565b915061351a82614635565b602e82019050919050565b6000613532600e836141b8565b915061353d82614684565b600e82019050919050565b60006135556024836141a7565b9150613560826146ad565b604082019050919050565b60006135786019836141a7565b9150613583826146fc565b602082019050919050565b600061359b600f836141b8565b91506135a682614725565b600f82019050919050565b60006135be602c836141a7565b91506135c98261474e565b604082019050919050565b60006135e16034836141b8565b91506135ec8261479d565b603482019050919050565b60006136046038836141a7565b915061360f826147ec565b604082019050919050565b6000613627602a836141a7565b91506136328261483b565b604082019050919050565b600061364a6029836141a7565b91506136558261488a565b604082019050919050565b600061366d6062836141b8565b9150613678826148d9565b606282019050919050565b6000613690602d836141a7565b915061369b82614974565b604082019050919050565b60006136b36020836141a7565b91506136be826149c3565b602082019050919050565b60006136d6602c836141a7565b91506136e1826149ec565b604082019050919050565b60006136f96029836141a7565b915061370482614a3b565b604082019050919050565b600061371c600a836141b8565b915061372782614a8a565b600a82019050919050565b600061373f6021836141a7565b915061374a82614ab3565b604082019050919050565b60006137626005836141b8565b915061376d82614b02565b600582019050919050565b6000613785601d836141b8565b915061379082614b2b565b601d82019050919050565b60006137a86031836141a7565b91506137b382614b54565b604082019050919050565b60006137cb603d836141b8565b91506137d682614ba3565b603d82019050919050565b60006137ee602d836141b8565b91506137f982614bf2565b602d82019050919050565b600060a083016000830151848203600086015261382182826133d3565b9150506020830151848203602086015261383b82826133d3565b91505060408301516138506040860182613a19565b5060608301516138636060860182613a19565b5060808301516138766080860182613a19565b508091505092915050565b60006101208301600083015161389a6000860182613a19565b50602083015184820360208601526138b282826133d3565b915050604083015184820360408601526138cc82826133d3565b91505060608301516138e16060860182613a19565b5060808301516138f46080860182613a19565b5060a083015161390760a0860182613a19565b5060c083015161391a60c0860182613a37565b5060e083015161392d60e0860182613a37565b50610100830151613942610100860182613a19565b508091505092915050565b6000610120830160008301516139666000860182613a19565b506020830151848203602086015261397e82826133d3565b9150506040830151848203604086015261399882826133d3565b91505060608301516139ad6060860182613a19565b5060808301516139c06080860182613a19565b5060a08301516139d360a0860182613a19565b5060c08301516139e660c0860182613a37565b5060e08301516139f960e0860182613a37565b50610100830151613a0e610100860182613a19565b508091505092915050565b613a2281614342565b82525050565b613a3181614342565b82525050565b613a408161434c565b82525050565b613a4f8161434c565b82525050565b6000613a608261370f565b9150613a6c828c613445565b9150613a7782613476565b9150613a83828b613445565b9150613a8e82613660565b9150613a9a828a613445565b9150613aa5826137be565b9150613ab18289613445565b9150613abc82613525565b9150613ac88288613445565b9150613ad3826137e1565b9150613adf8287613445565b9150613aea82613502565b9150613af68286613445565b9150613b01826135d4565b9150613b0d8285613445565b9150613b188261358e565b9150613b248284613445565b9150613b2f82613755565b91508190509a9950505050505050505050565b6000613b4d82613778565b9150613b598284613445565b915081905092915050565b6000602082019050613b796000830184613307565b92915050565b6000608082019050613b946000830187613307565b613ba16020830186613307565b613bae6040830185613a28565b8181036060830152613bc0818461339a565b905095945050505050565b6000606082019050613be06000830186613307565b613bed6020830185613a28565b613bfa6040830184613a28565b949350505050565b60006020820190508181036000830152613c1c8184613316565b905092915050565b6000602082019050613c39600083018461338b565b92915050565b60006020820190508181036000830152613c59818461340c565b905092915050565b60006080820190508181036000830152613c7b818761340c565b90508181036020830152613c8f818661340c565b9050613c9e6040830185613a28565b8181036060830152613cb0818461340c565b905095945050505050565b60006080820190508181036000830152613cd5818761340c565b90508181036020830152613ce9818661340c565b9050613cf86040830185613a28565b613d056060830184613a28565b95945050505050565b600060a0820190508181036000830152613d28818861340c565b90508181036020830152613d3c818761340c565b9050613d4b6040830186613a28565b613d586060830185613a28565b613d656080830184613a28565b9695505050505050565b60006040820190508181036000830152613d89818561340c565b9050613d986020830184613a28565b9392505050565b60006060820190508181036000830152613db9818661340c565b9050613dc86020830185613a28565b613dd56040830184613a28565b949350505050565b60006020820190508181036000830152613df681613499565b9050919050565b60006020820190508181036000830152613e16816134bc565b9050919050565b60006020820190508181036000830152613e36816134df565b9050919050565b60006020820190508181036000830152613e5681613548565b9050919050565b60006020820190508181036000830152613e768161356b565b9050919050565b60006020820190508181036000830152613e96816135b1565b9050919050565b60006020820190508181036000830152613eb6816135f7565b9050919050565b60006020820190508181036000830152613ed68161361a565b9050919050565b60006020820190508181036000830152613ef68161363d565b9050919050565b60006020820190508181036000830152613f1681613683565b9050919050565b60006020820190508181036000830152613f36816136a6565b9050919050565b60006020820190508181036000830152613f56816136c9565b9050919050565b60006020820190508181036000830152613f76816136ec565b9050919050565b60006020820190508181036000830152613f9681613732565b9050919050565b60006020820190508181036000830152613fb68161379b565b9050919050565b60006020820190508181036000830152613fd78184613804565b905092915050565b60006020820190508181036000830152613ff9818461394d565b905092915050565b60006020820190506140166000830184613a28565b92915050565b600061012082019050614032600083018c613a28565b8181036020830152614044818b61340c565b90508181036040830152614058818a61340c565b90506140676060830189613a28565b6140746080830188613a28565b61408160a0830187613a28565b61408e60c0830186613a46565b61409b60e0830185613a46565b6140a9610100830184613a28565b9a9950505050505050505050565b60006040820190506140cc6000830185613a28565b6140d96020830184613a28565b9392505050565b60006140ea6140fb565b90506140f682826143cd565b919050565b6000604051905090565b600067ffffffffffffffff8211156141205761411f614505565b5b61412982614534565b9050602081019050919050565b6000819050602082019050919050565b600081519050919050565b600081519050919050565b600081519050919050565b6000602082019050919050565b600082825260208201905092915050565b600082825260208201905092915050565b600082825260208201905092915050565b600082825260208201905092915050565b600081905092915050565b60006141ce82614342565b91506141d983614342565b9250827fffffffffffffffffffffffffffffffffffffffffffffffffffffffffffffffff0382111561420e5761420d614478565b5b828201905092915050565b600061422482614342565b915061422f83614342565b92508261423f5761423e6144a7565b5b828204905092915050565b600061425582614342565b915061426083614342565b9250817fffffffffffffffffffffffffffffffffffffffffffffffffffffffffffffffff048311821515161561429957614298614478565b5b828202905092915050565b60006142af82614342565b91506142ba83614342565b9250828210156142cd576142cc614478565b5b828203905092915050565b60006142e382614322565b9050919050565b60008115159050919050565b60007fffffffff0000000000000000000000000000000000000000000000000000000082169050919050565b600073ffffffffffffffffffffffffffffffffffffffff82169050919050565b6000819050919050565b600060ff82169050919050565b82818337600083830152505050565b60005b8381101561438657808201518184015260208101905061436b565b83811115614395576000848401525b50505050565b600060028204905060018216806143b357607f821691505b602082108114156143c7576143c66144d6565b5b50919050565b6143d682614534565b810181811067ffffffffffffffff821117156143f5576143f4614505565b5b80604052505050565b600061440982614342565b91507fffffffffffffffffffffffffffffffffffffffffffffffffffffffffffffffff82141561443c5761443b614478565b5b600182019050919050565b600061445282614342565b915061445d83614342565b92508261446d5761446c6144a7565b5b828206905092915050565b7f4e487b7100000000000000000000000000000000000000000000000000000000600052601160045260246000fd5b7f4e487b7100000000000000000000000000000000000000000000000000000000600052601260045260246000fd5b7f4e487b7100000000000000000000000000000000000000000000000000000000600052602260045260246000fd5b7f4e487b7100000000000000000000000000000000000000000000000000000000600052604160045260246000fd5b6000601f19601f8301169050919050565b7f202d2d204e465420233a20000000000000000000000000000000000000000000600082015250565b7f4552433732313a207472616e7366657220746f206e6f6e20455243373231526560008201527f63656976657220696d706c656d656e7465720000000000000000000000000000602082015250565b7f4572726f723a20626f7373206d757374206861766520485020746f206174746160008201527f636b20626f73732e000000000000000000000000000000000000000000000000602082015250565b7f4552433732313a20746f6b656e20616c7265616479206d696e74656400000000600082015250565b7f7d2c207b202274726169745f74797065223a2022446566656e736520506f696e60008201527f7473222c202276616c7565223a20000000000000000000000000000000000000602082015250565b7f2c20226d61785f76616c7565223a000000000000000000000000000000000000600082015250565b7f4552433732313a207472616e7366657220746f20746865207a65726f2061646460008201527f7265737300000000000000000000000000000000000000000000000000000000602082015250565b7f4552433732313a20617070726f766520746f2063616c6c657200000000000000600082015250565b7f2c20226d61785f76616c7565223a200000000000000000000000000000000000600082015250565b7f4552433732313a206f70657261746f7220717565727920666f72206e6f6e657860008201527f697374656e7420746f6b656e0000000000000000000000000000000000000000602082015250565b7f7d2c207b202274726169745f74797065223a2022437269746963616c2048697460008201527f20436f756e746572222c202276616c7565223a20000000000000000000000000602082015250565b7f4552433732313a20617070726f76652063616c6c6572206973206e6f74206f7760008201527f6e6572206e6f7220617070726f76656420666f7220616c6c0000000000000000602082015250565b7f4552433732313a2062616c616e636520717565727920666f7220746865207a6560008201527f726f206164647265737300000000000000000000000000000000000000000000602082015250565b7f4552433732313a206f776e657220717565727920666f72206e6f6e657869737460008201527f656e7420746f6b656e0000000000000000000000000000000000000000000000602082015250565b7f222c20226465736372697074696f6e223a20225468697320697320616e204e4660008201527f542074686174206c6574732070656f706c6520706c617920696e20746865206760208201527f616d65204d657461766572736520536c6179657221222c2022696d616765223a60408201527f2022000000000000000000000000000000000000000000000000000000000000606082015250565b7f4572726f723a20636861726163746572206d757374206861766520485020746f60008201527f2061747461636b20626f73732e00000000000000000000000000000000000000602082015250565b7f4552433732313a206d696e7420746f20746865207a65726f2061646472657373600082015250565b7f4552433732313a20617070726f76656420717565727920666f72206e6f6e657860008201527f697374656e7420746f6b656e0000000000000000000000000000000000000000602082015250565b7f4552433732313a207472616e73666572206f6620746f6b656e2074686174206960008201527f73206e6f74206f776e0000000000000000000000000000000000000000000000602082015250565b7f7b226e616d65223a202200000000000000000000000000000000000000000000600082015250565b7f4552433732313a20617070726f76616c20746f2063757272656e74206f776e6560008201527f7200000000000000000000000000000000000000000000000000000000000000602082015250565b7f207d205d7d000000000000000000000000000000000000000000000000000000600082015250565b7f646174613a6170706c69636174696f6e2f6a736f6e3b6261736536342c000000600082015250565b7f4552433732313a207472616e736665722063616c6c6572206973206e6f74206f60008201527f776e6572206e6f7220617070726f766564000000000000000000000000000000602082015250565b7f222c202261747472696275746573223a205b207b202274726169745f7479706560008201527f223a20224865616c746820506f696e7473222c202276616c7565223a20000000602082015250565b7f7d2c207b202274726169745f74797065223a202241747461636b2044616d616760008201527f65222c202276616c7565223a2000000000000000000000000000000000000000602082015250565b614c4a816142d8565b8114614c5557600080fd5b50565b614c61816142ea565b8114614c6c57600080fd5b50565b614c78816142f6565b8114614c8357600080fd5b50565b614c8f81614342565b8114614c9a57600080fd5b5056fe4142434445464748494a4b4c4d4e4f505152535455565758595a6162636465666768696a6b6c6d6e6f707172737475767778797a303132333435363738392b2f426f73732061747461636b656420706c617965722e204e657720706c617965722068703a2025730a4d696e746564204e465420772f20746f6b656e496420257320616e6420636861726163746572496e6465782025730a506c6179657220772f206368617261637465722025732061626f757420746f2061747461636b2e2048617320257320485020616e64202573204144a2646970667358221220a8c78544af39537fdf7bb976c816ed449e33ddfff608b03e8b423c7d52ef716464736f6c63430008040033446f6e6520696e697469616c697a696e6720257320772f2048502025732c20696d67202573446f6e6520696e697469616c697a696e6720626f737320257320772f2048502025732c20696d67202573",
  "linkReferences": {},
  "deployedLinkReferences": {}
}